{
  "contractName": "Fund",
  "abi": [
    {
      "constant": true,
      "inputs": [],
      "name": "initializationProgress",
      "outputs": [
        {
          "name": "",
          "type": "uint8"
        }
      ],
      "payable": false,
      "stateMutability": "view",
      "type": "function"
    },
    {
      "constant": true,
      "inputs": [],
      "name": "cryptoYen",
      "outputs": [
        {
          "name": "",
          "type": "address"
        }
      ],
      "payable": false,
      "stateMutability": "view",
      "type": "function"
    },
    {
      "constant": true,
      "inputs": [
        {
          "name": "",
          "type": "uint256"
        }
      ],
      "name": "fundStates",
      "outputs": [
        {
          "name": "principalCollected",
          "type": "int256"
        },
        {
          "name": "interestCollected",
          "type": "int256"
        },
        {
          "name": "bankInterest",
          "type": "int256"
        },
        {
          "name": "expenses",
          "type": "int256"
        },
        {
          "name": "trustFees",
          "type": "int256"
        },
        {
          "name": "priorityPrincipal",
          "type": "int256"
        },
        {
          "name": "subordinatedPrincipal",
          "type": "int256"
        },
        {
          "name": "loansPrincipal",
          "type": "int256"
        },
        {
          "name": "dividendsNotDistributed",
          "type": "int256"
        },
        {
          "name": "principalNotDistributed",
          "type": "int256"
        },
        {
          "name": "reserveCash",
          "type": "int256"
        },
        {
          "name": "lastDividendsCalculationDate",
          "type": "uint256"
        },
        {
          "name": "lastTrustFeesCalculationDate",
          "type": "uint256"
        }
      ],
      "payable": false,
      "stateMutability": "view",
      "type": "function"
    },
    {
      "constant": true,
      "inputs": [],
      "name": "fundTerms",
      "outputs": [
        {
          "name": "totalPriorityRights",
          "type": "int256"
        },
        {
          "name": "totalSubordinatedRights",
          "type": "int256"
        },
        {
          "name": "totalRights",
          "type": "int256"
        },
        {
          "name": "cashReserves",
          "type": "int256"
        },
        {
          "name": "priorityDividendsRate",
          "type": "int256"
        },
        {
          "name": "trustFeeRate",
          "type": "int256"
        },
        {
          "name": "dividendsCalculationTermBeginnig",
          "type": "uint256"
        },
        {
          "name": "trustFeesCalculationTermBeginnig",
          "type": "uint256"
        }
      ],
      "payable": false,
      "stateMutability": "view",
      "type": "function"
    },
    {
      "constant": true,
      "inputs": [
        {
          "name": "",
          "type": "uint256"
        }
      ],
      "name": "subordinated",
      "outputs": [
        {
          "name": "",
          "type": "address"
        }
      ],
      "payable": false,
      "stateMutability": "view",
      "type": "function"
    },
    {
      "constant": true,
      "inputs": [
        {
          "name": "",
          "type": "uint256"
        }
      ],
      "name": "priorities",
      "outputs": [
        {
          "name": "",
          "type": "address"
        }
      ],
      "payable": false,
      "stateMutability": "view",
      "type": "function"
    },
    {
      "inputs": [
        {
          "name": "_cryptoYen",
          "type": "address"
        }
      ],
      "payable": false,
      "stateMutability": "nonpayable",
      "type": "constructor"
    },
    {
      "anonymous": false,
      "inputs": [
        {
          "indexed": true,
          "name": "_uint256",
          "type": "uint256"
        },
        {
          "indexed": true,
          "name": "_int256",
          "type": "int256"
        },
        {
          "indexed": true,
          "name": "_bool",
          "type": "bool"
        }
      ],
      "name": "DebugEvent",
      "type": "event"
    },
    {
      "constant": true,
      "inputs": [],
      "name": "getStateLength",
      "outputs": [
        {
          "name": "",
          "type": "uint256"
        }
      ],
      "payable": false,
      "stateMutability": "view",
      "type": "function"
    },
    {
      "constant": true,
      "inputs": [],
      "name": "getLastState",
      "outputs": [
        {
          "name": "",
          "type": "int256[]"
        }
      ],
      "payable": false,
      "stateMutability": "view",
      "type": "function"
    },
    {
      "constant": true,
      "inputs": [],
      "name": "getInitialTerm",
      "outputs": [
        {
          "name": "",
          "type": "int256[]"
        }
      ],
      "payable": false,
      "stateMutability": "view",
      "type": "function"
    },
    {
      "constant": false,
      "inputs": [
        {
          "name": "_details",
          "type": "int256[5]"
        }
      ],
      "name": "initData",
      "outputs": [
        {
          "name": "",
          "type": "bool"
        }
      ],
      "payable": false,
      "stateMutability": "nonpayable",
      "type": "function"
    },
    {
      "constant": false,
      "inputs": [
        {
          "name": "_priorityBeneficiaries",
          "type": "int256[]"
        },
        {
          "name": "_subordinatedBeneficiaries",
          "type": "int256[]"
        }
      ],
      "name": "initBeneficiary",
      "outputs": [
        {
          "name": "",
          "type": "bool"
        }
      ],
      "payable": false,
      "stateMutability": "nonpayable",
      "type": "function"
    },
    {
      "constant": true,
      "inputs": [],
      "name": "getRightsOfEachInvestor",
      "outputs": [
        {
          "name": "",
          "type": "int256[]"
        }
      ],
      "payable": false,
      "stateMutability": "view",
      "type": "function"
    },
    {
      "constant": true,
      "inputs": [],
      "name": "getBalanceForEachInvestor",
      "outputs": [
        {
          "name": "",
          "type": "int256[]"
        }
      ],
      "payable": false,
      "stateMutability": "view",
      "type": "function"
    },
    {
      "constant": true,
      "inputs": [],
      "name": "getBalanceSheet",
      "outputs": [
        {
          "name": "",
          "type": "int256[]"
        }
      ],
      "payable": false,
      "stateMutability": "view",
      "type": "function"
    },
    {
      "constant": false,
      "inputs": [
        {
          "name": "_details",
          "type": "int256[7]"
        }
      ],
      "name": "setInformationFromOBK",
      "outputs": [
        {
          "name": "",
          "type": "bool"
        }
      ],
      "payable": false,
      "stateMutability": "nonpayable",
      "type": "function"
    }
  ],
  "bytecode": "0x606060405234156200001057600080fd5b6040516020806200293c83398101604052808051906020019091905050806000806101000a81548173ffffffffffffffffffffffffffffffffffffffff021916908373ffffffffffffffffffffffffffffffffffffffff160217905550600980548060010182816200008391906200018f565b91600052602060002090600d020160006101a06040519081016040528060008152602001600081526020016000815260200160008152602001600081526020016000815260200160008152602001600081526020016000815260200160008152602001600081526020016000815260200160008152509091909150600082015181600001556020820151816001015560408201518160020155606082015181600301556080820151816004015560a0820151816005015560c0820151816006015560e082015181600701556101008201518160080155610120820151816009015561014082015181600a015561016082015181600b015561018082015181600c0155505050506200024e565b815481835581811511620001bf57600d0281600d028360005260206000209182019101620001be9190620001c4565b5b505050565b6200024b91905b808211156200024757600080820160009055600182016000905560028201600090556003820160009055600482016000905560058201600090556006820160009055600782016000905560088201600090556009820160009055600a820160009055600b820160009055600c82016000905550600d01620001cb565b5090565b90565b6126de806200025e6000396000f3006060604052600436106100db576000357c0100000000000000000000000000000000000000000000000000000000900463ffffffff168063021b58f0146100e057806308992cd11461010f5780630fc7b3861461017957806327df8c54146101ce5780632b328bfc1461023857806333e3a6a2146102a2578063396d53ad1461032d5780634e58c8da1461038757806357ec3e38146103f15780636e72341f1461044f578063a6dd73db146104b2578063b36f923e14610510578063b55097aa14610573578063e6a1d1b314610625578063f09649ed1461068f575b600080fd5b34156100eb57600080fd5b6100f36106b8565b604051808260ff1660ff16815260200191505060405180910390f35b341561011a57600080fd5b6101226106cb565b6040518080602001828103825283818151815260200191508051906020019060200280838360005b8381101561016557808201518184015260208101905061014a565b505050509050019250505060405180910390f35b341561018457600080fd5b61018c610960565b604051808273ffffffffffffffffffffffffffffffffffffffff1673ffffffffffffffffffffffffffffffffffffffff16815260200191505060405180910390f35b34156101d957600080fd5b6101e1610985565b6040518080602001828103825283818151815260200191508051906020019060200280838360005b83811015610224578082015181840152602081019050610209565b505050509050019250505060405180910390f35b341561024357600080fd5b61024b610ba2565b6040518080602001828103825283818151815260200191508051906020019060200280838360005b8381101561028e578082015181840152602081019050610273565b505050509050019250505060405180910390f35b34156102ad57600080fd5b6102c36004808035906020019091905050611005565b604051808e81526020018d81526020018c81526020018b81526020018a81526020018981526020018881526020018781526020018681526020018581526020018481526020018381526020018281526020019d505050505050505050505050505060405180910390f35b341561033857600080fd5b61034061107a565b604051808981526020018881526020018781526020018681526020018581526020018481526020018381526020018281526020019850505050505050505060405180910390f35b341561039257600080fd5b61039a6110b0565b6040518080602001828103825283818151815260200191508051906020019060200280838360005b838110156103dd5780820151818401526020810190506103c2565b505050509050019250505060405180910390f35b34156103fc57600080fd5b6104356004808060e0019060078060200260405190810160405280929190826007602002808284378201915050505050919050506113b7565b604051808215151515815260200191505060405180910390f35b341561045a57600080fd5b6104706004808035906020019091905050611795565b604051808273ffffffffffffffffffffffffffffffffffffffff1673ffffffffffffffffffffffffffffffffffffffff16815260200191505060405180910390f35b34156104bd57600080fd5b6104f66004808060a0019060058060200260405190810160405280929190826005602002808284378201915050505050919050506117d4565b604051808215151515815260200191505060405180910390f35b341561051b57600080fd5b61053160048080359060200190919050506119af565b604051808273ffffffffffffffffffffffffffffffffffffffff1673ffffffffffffffffffffffffffffffffffffffff16815260200191505060405180910390f35b341561057e57600080fd5b61060b600480803590602001908201803590602001908080602002602001604051908101604052809392919081815260200183836020028082843782019150505050505091908035906020019082018035906020019080806020026020016040519081016040528093929190818152602001838360200280828437820191505050505050919050506119ee565b604051808215151515815260200191505060405180910390f35b341561063057600080fd5b610638611e0a565b6040518080602001828103825283818151815260200191508051906020019060200280838360005b8381101561067b578082015181840152602081019050610660565b505050509050019250505060405180910390f35b341561069a57600080fd5b6106a2611f5a565b6040518082815260200191505060405180910390f35b600e60009054906101000a900460ff1681565b6106d36124af565b6000806106de6124af565b60008060008060008060096001600980549050038154811015156106fe57fe5b90600052602060002090600d0201985060019750600d88026040518059106107235750595b90808252806020026020018201604052509650886007015487600081518110151561074a57fe5b906020019060200201818152505088600901548960000154019550886003015489600401548a600101540303945088600a01549350886002015484868801010187600181518110151561079957fe5b9060200190602002018181525050858760028151811015156107b757fe5b9060200190602002018181525050848760038151811015156107d557fe5b9060200190602002018181525050838760048151811015156107f357fe5b9060200190602002018181525050600087600581518110151561081257fe5b906020019060200201818152505086600581518110151561082f57fe5b9060200190602002015187600081518110151561084857fe5b906020019060200201510387600681518110151561086257fe5b90602001906020020181815250506001600001549250600180015491506001600301549050808284010187600781518110151561089b57fe5b9060200190602002018181525050828760088151811015156108b957fe5b9060200190602002018181525050818760098151811015156108d757fe5b90602001906020020181815250508087600a8151811015156108f557fe5b90602001906020020181815250508860020154850187600b81518110151561091957fe5b90602001906020020181815250508860020154858284860101010187600c81518110151561094357fe5b906020019060200201818152505086995050505050505050505090565b6000809054906101000a900473ffffffffffffffffffffffffffffffffffffffff1681565b61098d6124af565b60006109976124af565b60096001600980549050038154811015156109ae57fe5b90600052602060002090600d02019150600d6040518059106109cd5750595b9080825280602002602001820160405250905081600001548160008151811015156109f457fe5b90602001906020020181815250508160010154816001815181101515610a1657fe5b90602001906020020181815250508160020154816002815181101515610a3857fe5b90602001906020020181815250508160030154816003815181101515610a5a57fe5b90602001906020020181815250508160040154816004815181101515610a7c57fe5b90602001906020020181815250508160050154816005815181101515610a9e57fe5b90602001906020020181815250508160060154816006815181101515610ac057fe5b90602001906020020181815250508160070154816007815181101515610ae257fe5b90602001906020020181815250508160080154816008815181101515610b0457fe5b90602001906020020181815250508160090154816009815181101515610b2657fe5b906020019060200201818152505081600a015481600a815181101515610b4857fe5b906020019060200201818152505081600b015481600b815181101515610b6a57fe5b906020019060200201818152505081600c015481600c815181101515610b8c57fe5b9060200190602002018181525050809250505090565b610baa6124af565b600080610bb56124af565b60006009600160098054905003815481101515610bce57fe5b90600052602060002090600d0201935060039250600d80549050600c80549050600401018302604051805910610c015750595b9080825280602002602001820160405250915060009050600090505b600c80549050811015610d6757600182848302815181101515610c3c57fe5b9060200190602002018181525050600c81815481101515610c5957fe5b906000526020600020900160009054906101000a900473ffffffffffffffffffffffffffffffffffffffff1673ffffffffffffffffffffffffffffffffffffffff1682600185840201815181101515610cae57fe5b9060200190602002018181525050600a6000600c83815481101515610ccf57fe5b906000526020600020900160009054906101000a900473ffffffffffffffffffffffffffffffffffffffff1673ffffffffffffffffffffffffffffffffffffffff1673ffffffffffffffffffffffffffffffffffffffff1681526020019081526020016000206000015482600285840201815181101515610d4c57fe5b90602001906020020181815250508080600101915050610c1d565b600090505b600d80549050811015610ecb576002828483600c805490500102815181101515610d9257fe5b9060200190602002018181525050600d81815481101515610daf57fe5b906000526020600020900160009054906101000a900473ffffffffffffffffffffffffffffffffffffffff1673ffffffffffffffffffffffffffffffffffffffff168260018584600c80549050010201815181101515610e0b57fe5b9060200190602002018181525050600b6000600d83815481101515610e2c57fe5b906000526020600020900160009054906101000a900473ffffffffffffffffffffffffffffffffffffffff1673ffffffffffffffffffffffffffffffffffffffff1673ffffffffffffffffffffffffffffffffffffffff168152602001908152602001600020600001548260028584600c80549050010201815181101515610eb057fe5b90602001906020020181815250508080600101915050610d6c565b600d80549050600c80549050019050600382848302815181101515610eec57fe5b9060200190602002018181525050836007015482600285840201815181101515610f1257fe5b9060200190602002018181525050600482600385840201815181101515610f3557fe5b9060200190602002018181525050836008015482600585840201815181101515610f5b57fe5b9060200190602002018181525050600582600685840201815181101515610f7e57fe5b9060200190602002018181525050836008015482600885840201815181101515610fa457fe5b9060200190602002018181525050600682600985840201815181101515610fc757fe5b906020019060200201818152505083600a015482600b85840201815181101515610fed57fe5b90602001906020020181815250508194505050505090565b60098181548110151561101457fe5b90600052602060002090600d020160009150905080600001549080600101549080600201549080600301549080600401549080600501549080600601549080600701549080600801549080600901549080600a01549080600b01549080600c015490508d565b60018060000154908060010154908060020154908060030154908060040154908060050154908060060154908060070154905088565b6110b86124af565b60006110c26124af565b600060039250600d80549050600c805490500183026040518059106110e45750595b9080825280602002602001820160405250915060009050600090505b600c8054905081101561124a5760018284830281518110151561111f57fe5b9060200190602002018181525050600c8181548110151561113c57fe5b906000526020600020900160009054906101000a900473ffffffffffffffffffffffffffffffffffffffff1673ffffffffffffffffffffffffffffffffffffffff168260018584020181518110151561119157fe5b9060200190602002018181525050600a6000600c838154811015156111b257fe5b906000526020600020900160009054906101000a900473ffffffffffffffffffffffffffffffffffffffff1673ffffffffffffffffffffffffffffffffffffffff1673ffffffffffffffffffffffffffffffffffffffff168152602001908152602001600020600101548260028584020181518110151561122f57fe5b90602001906020020181815250508080600101915050611100565b600090505b600d805490508110156113ae576002828483600c80549050010281518110151561127557fe5b9060200190602002018181525050600d8181548110151561129257fe5b906000526020600020900160009054906101000a900473ffffffffffffffffffffffffffffffffffffffff1673ffffffffffffffffffffffffffffffffffffffff168260018584600c805490500102018151811015156112ee57fe5b9060200190602002018181525050600b6000600d8381548110151561130f57fe5b906000526020600020900160009054906101000a900473ffffffffffffffffffffffffffffffffffffffff1673ffffffffffffffffffffffffffffffffffffffff1673ffffffffffffffffffffffffffffffffffffffff168152602001908152602001600020600101548260028584600c8054905001020181518110151561139357fe5b9060200190602002018181525050808060010191505061124f565b81935050505090565b60008060006113c46124c3565b600080600080600080600098505b600789101561140b5760008b60006007811015156113ec57fe5b6020020151121515156113fe57600080fd5b88806001019950506113d2565b600960016009805490500381548110151561142257fe5b90600052602060002090600d0201975087600a0154876101400181815250508a600160078110151561145057fe5b60200201518760000181815250508a600260078110151561146d57fe5b60200201518760200181815250508a600460078110151561148a57fe5b60200201518760400181815250508a60056007811015156114a757fe5b602002015187606001818152505087600801548b60056007811015156114c957fe5b60200201518c60046007811015156114dd57fe5b60200201518d60026007811015156114f157fe5b6020020151010301955087600901548b600160078110151561150f57fe5b602002015101945087600701548860050154860281151561152c57fe5b05935087600701548860060154860281151561154457fe5b05925061156888600b01548c600060078110151561155e57fe5b6020020151611f67565b91508760050154905060016004015481029050818102905061016d8181151561158d57fe5b059050670de0b6b3a7640000818115156115a357fe5b059050838860050154038760a0018181525050828860060154038760c00181815250508284896007015403038760e0018181525050858113151561167a576115ed8685848b611f90565b80975081965050506000851215151561160557600080fd5b6000861215151561161557600080fd5b848761012001818151019150818152505061163186848a6121d4565b80975081965050506000851215151561164957600080fd5b6000861215151561165957600080fd5b84876101200181815101915081815250508587610100018181525050611693565b87600a015486018113151561168e57600080fd5b600080fd5b8a60006007811015156116a257fe5b6020020151876101600181815250508a60006007811015156116c057fe5b602002015187610180018181525050600980548060010182816116e3919061252c565b91600052602060002090600d02016000899091909150600082015181600001556020820151816001015560408201518160020155606082015181600301556080820151816004015560a0820151816005015560c0820151816006015560e082015181600701556101008201518160080155610120820151816009015561014082015181600a015561016082015181600b015561018082015181600c015550505060019950505050505050505050919050565b600d818154811015156117a457fe5b90600052602060002090016000915054906101000a900473ffffffffffffffffffffffffffffffffffffffff1681565b60008160006005811015156117e557fe5b602002015160016003018190555081600160058110151561180257fe5b602002015160016004018190555081600260058110151561181f57fe5b602002015160016005018190555081600360058110151561183c57fe5b602002015160016006018190555081600460058110151561185957fe5b60200201516001600701819055506000809054906101000a900473ffffffffffffffffffffffffffffffffffffffff1673ffffffffffffffffffffffffffffffffffffffff166340c10f19306001600301546000604051602001526040518363ffffffff167c0100000000000000000000000000000000000000000000000000000000028152600401808373ffffffffffffffffffffffffffffffffffffffff1673ffffffffffffffffffffffffffffffffffffffff16815260200182815260200192505050602060405180830381600087803b151561193857600080fd5b6102c65a03f1151561194957600080fd5b50505060405180519050506001600e60009054906101000a900460ff1617600e60006101000a81548160ff021916908360ff1602179055506003600e60009054906101000a900460ff1660ff1614156119a6576119a46123ff565b505b60019050919050565b600c818154811015156119be57fe5b90600052602060002090016000915054906101000a900473ffffffffffffffffffffffffffffffffffffffff1681565b600080600080600060028751811515611a0357fe5b06141515611a1057600080fd5b600060028651811515611a1f57fe5b06141515611a2c57600080fd5b60028651811515611a3957fe5b04604051805910611a475750595b9080825280602002602001820160405250600c9080519060200190611a6d92919061255e565b5060028551811515611a7b57fe5b04604051805910611a895750595b9080825280602002602001820160405250600d9080519060200190611aaf92919061255e565b506000915060009050600092505b8551831015611c22578583815181101515611ad457fe5b90602001906020020151600c600285811515611aec57fe5b04815481101515611af957fe5b906000526020600020900160006101000a81548173ffffffffffffffffffffffffffffffffffffffff021916908373ffffffffffffffffffffffffffffffffffffffff16021790555060408051908101604052808760018601815181101515611b5e57fe5b9060200190602002015181526020018760018601815181101515611b7e57fe5b90602001906020020151815250600a60008886815181101515611b9d57fe5b9060200190602002015173ffffffffffffffffffffffffffffffffffffffff1673ffffffffffffffffffffffffffffffffffffffff16815260200190815260200160002060008201518160000155602082015181600101559050508560018401815181101515611c0957fe5b9060200190602002015182019150600283019250611abd565b600092505b8451831015611d8c578483815181101515611c3e57fe5b90602001906020020151600d600285811515611c5657fe5b04815481101515611c6357fe5b906000526020600020900160006101000a81548173ffffffffffffffffffffffffffffffffffffffff021916908373ffffffffffffffffffffffffffffffffffffffff16021790555060408051908101604052808660018601815181101515611cc857fe5b9060200190602002015181526020018660018601815181101515611ce857fe5b90602001906020020151815250600b60008786815181101515611d0757fe5b9060200190602002015173ffffffffffffffffffffffffffffffffffffffff1673ffffffffffffffffffffffffffffffffffffffff16815260200190815260200160002060008201518160000155602082015181600101559050508460018401815181101515611d7357fe5b9060200190602002015181019050600283019250611c27565b816001600001819055508060018001819055508082016001600201819055506002600e60009054906101000a900460ff1617600e60006101000a81548160ff021916908360ff1602179055506003600e60009054906101000a900460ff1660ff161415611dfd57611dfb6123ff565b505b6001935050505092915050565b611e126124af565b611e1a6124af565b6008604051805910611e295750595b90808252806020026020018201604052509050600160000154816000815181101515611e5157fe5b90602001906020020181815250506001800154816001815181101515611e7357fe5b9060200190602002018181525050600160020154816002815181101515611e9657fe5b9060200190602002018181525050600160030154816003815181101515611eb957fe5b9060200190602002018181525050600160040154816004815181101515611edc57fe5b9060200190602002018181525050600160050154816005815181101515611eff57fe5b9060200190602002018181525050600160060154816006815181101515611f2257fe5b9060200190602002018181525050600160070154816007815181101515611f4557fe5b90602001906020020181815250508091505090565b6000600980549050905090565b60006201518083811515611f7757fe5b046201518083811515611f8657fe5b0403905092915050565b60008060008060008060008996508a9550600094505b600c805490508510156121c057600a6000600c87815481101515611fc657fe5b906000526020600020900160009054906101000a900473ffffffffffffffffffffffffffffffffffffffff1673ffffffffffffffffffffffffffffffffffffffff1673ffffffffffffffffffffffffffffffffffffffff16815260200190815260200160002093508360000154925087600501548a840281151561204657fe5b0591508184600001600082825403925050819055508187039650670de0b6b3a764000061016d6001600401548b86020281151561207f57fe5b0581151561208957fe5b0590506000809054906101000a900473ffffffffffffffffffffffffffffffffffffffff1673ffffffffffffffffffffffffffffffffffffffff166340c10f19600c878154811015156120d857fe5b906000526020600020900160009054906101000a900473ffffffffffffffffffffffffffffffffffffffff16836000604051602001526040518363ffffffff167c0100000000000000000000000000000000000000000000000000000000028152600401808373ffffffffffffffffffffffffffffffffffffffff1673ffffffffffffffffffffffffffffffffffffffff16815260200182815260200192505050602060405180830381600087803b151561219257600080fd5b6102c65a03f115156121a357600080fd5b505050604051805190505080860395508480600101955050611fa6565b868696509650505050505094509492505050565b6000806000806000806000889650899550600094505b600d805490508510156123ec57600b6000600d8781548110151561220a57fe5b906000526020600020900160009054906101000a900473ffffffffffffffffffffffffffffffffffffffff1673ffffffffffffffffffffffffffffffffffffffff1673ffffffffffffffffffffffffffffffffffffffff168152602001908152602001600020935083600001549250876006015489840281151561228a57fe5b059150818460000160008282540392505081905550818703965087600601548a84028115156122b557fe5b0590506000809054906101000a900473ffffffffffffffffffffffffffffffffffffffff1673ffffffffffffffffffffffffffffffffffffffff166340c10f19600d8781548110151561230457fe5b906000526020600020900160009054906101000a900473ffffffffffffffffffffffffffffffffffffffff16836000604051602001526040518363ffffffff167c0100000000000000000000000000000000000000000000000000000000028152600401808373ffffffffffffffffffffffffffffffffffffffff1673ffffffffffffffffffffffffffffffffffffffff16815260200182815260200192505050602060405180830381600087803b15156123be57600080fd5b6102c65a03f115156123cf57600080fd5b5050506040518051905050808603955084806001019550506121ea565b8686965096505050505050935093915050565b6000806009600081548110151561241257fe5b90600052602060002090600d020190506000816000018190555060008160010181905550600081600201819055506001600001548160050181905550600180015481600601819055506001600201548160070181905550600081600801819055506000816009018190555060016003015481600a018190555060016006015481600b018190555060016007015481600c0181905550600191505090565b602060405190810160405280600081525090565b6101a060405190810160405280600081526020016000815260200160008152602001600081526020016000815260200160008152602001600081526020016000815260200160008152602001600081526020016000815260200160008152602001600081525090565b81548183558181151161255957600d0281600d02836000526020600020918201910161255891906125e8565b5b505050565b8280548282559060005260206000209081019282156125d7579160200282015b828111156125d65782518260006101000a81548173ffffffffffffffffffffffffffffffffffffffff021916908373ffffffffffffffffffffffffffffffffffffffff1602179055509160200191906001019061257e565b5b5090506125e4919061266f565b5090565b61266c91905b8082111561266857600080820160009055600182016000905560028201600090556003820160009055600482016000905560058201600090556006820160009055600782016000905560088201600090556009820160009055600a820160009055600b820160009055600c82016000905550600d016125ee565b5090565b90565b6126af91905b808211156126ab57600081816101000a81549073ffffffffffffffffffffffffffffffffffffffff021916905550600101612675565b5090565b905600a165627a7a723058205ffa5cc581004fe67d3b39f200f3f0e9ba824bba9260e8152f9d428fa281c9ef0029",
  "source": "pragma solidity ^0.4.18;\n\n\nimport \"../ownership/Ownable.sol\";\nimport \"./CryptoYenInterface.sol\";\n\n\ncontract Fund {\n    event DebugEvent(uint256 indexed  _uint256, int256 indexed _int256, bool indexed _bool);\n  int constant DECIMAL_MULTIPLIER = int(10**18);\n  \n  /* @dev Mintable utility token using for payments to beneficiary */\n  CryptoYenInterface public cryptoYen;\n\n\n  struct FundInitialState {\n    int totalPriorityRights;\n    int totalSubordinatedRights;\n    int totalRights;\n    int cashReserves;\n    int priorityDividendsRate;\n    int trustFeeRate;\n    uint dividendsCalculationTermBeginnig;\n    uint trustFeesCalculationTermBeginnig;\n  }\n\n  FundInitialState public fundTerms;\n\n  struct FundState {\n    int principalCollected;\n    int interestCollected;\n    int bankInterest;\n    int expenses;\n    int trustFees;\n    int priorityPrincipal;\n    int subordinatedPrincipal;\n    int loansPrincipal;\n    int dividendsNotDistributed;\n    int principalNotDistributed;\n    int reserveCash;\n    uint lastDividendsCalculationDate;\n    uint lastTrustFeesCalculationDate;\n  }\n\n  FundState[] public fundStates;\n\n\n\n\n  /* \n    @dev beneficiary struct:\n      - addr - ethereum address of beneficiary\n      - amout - beneficiary rights\n      - balance - current balance of investor\n  */\n\n  struct Beneficiary{\n    int balance;\n    int amount;\n  }\n\n  mapping (address => Beneficiary) priorityBeneficiaries;\n  mapping (address => Beneficiary) subordinatedBeneficiaries;\n\n  address[] public priorities;\n  address[] public subordinated;\n\n  /* @dev bitmask of initialization progress. 0x1 - initData, 0x2 - initBeneficiary */\n  uint8 public initializationProgress;\n\n\n  function getStateLength() public view returns(uint) {\n    return fundStates.length;\n  }\n\n  function getLastState() public view returns(int[]){\n    FundState storage lastState = fundStates[fundStates.length - 1];\n    int[] memory res = new int[](13);\n    res[0] = lastState.principalCollected;\n    res[1] = lastState.interestCollected;\n    res[2] = lastState.bankInterest;\n    res[3] = lastState.expenses;\n    res[4] = lastState.trustFees;\n    res[5] = lastState.priorityPrincipal;\n    res[6] = lastState.subordinatedPrincipal;\n    res[7] = lastState.loansPrincipal;\n    res[8] = lastState.dividendsNotDistributed;\n    res[9] = lastState.principalNotDistributed;\n    res[10] = lastState.reserveCash;\n    res[11] = int(lastState.lastDividendsCalculationDate);\n    res[12] = int(lastState.lastTrustFeesCalculationDate);\n    return res;\n  }\n\n\n  function getInitialTerm() public view returns(int[]){\n    int[] memory res = new int[](8);\n    res[0] = fundTerms.totalPriorityRights;\n    res[1] = fundTerms.totalSubordinatedRights;\n    res[2] = fundTerms.totalRights;\n    res[3] = fundTerms.cashReserves;\n    res[4] = fundTerms.priorityDividendsRate;\n    res[5] = fundTerms.trustFeeRate;\n    res[6] = int(fundTerms.dividendsCalculationTermBeginnig);\n    res[7] = int(fundTerms.trustFeesCalculationTermBeginnig);\n    return res;\n  }\n\n\n  /**\n   * @dev Fund constructor\n   */\n\n  function Fund(address _cryptoYen) public {\n    cryptoYen = CryptoYenInterface(_cryptoYen);\n    fundStates.push(FundState(0, 0, 0, 0, 0, 0, 0, 0, 0, 0, 0, 0, 0));\n  }\n\n\n  function initState() private returns(bool) {\n    FundState storage firstState = fundStates[0];\n    firstState.principalCollected = 0;\n    firstState.interestCollected = 0;\n    firstState.bankInterest = 0;\n    firstState.priorityPrincipal = fundTerms.totalPriorityRights;\n    firstState.subordinatedPrincipal = fundTerms.totalSubordinatedRights;\n    firstState.loansPrincipal = fundTerms.totalRights;\n    firstState.dividendsNotDistributed = 0;\n    firstState.principalNotDistributed = 0;\n    firstState.reserveCash = fundTerms.cashReserves;\n    firstState.lastDividendsCalculationDate = fundTerms.dividendsCalculationTermBeginnig;\n    firstState.lastTrustFeesCalculationDate = fundTerms.trustFeesCalculationTermBeginnig;\n    return true;\n  }\n\n  /**\n   * @dev Function to init Fund data\n   */\n\n\n    // int cashReserves;\n    // int priorityDividendsRate;\n    // int trustFeeRate;\n    // uint dividendsCalculationTermBeginnig;\n    // uint trustFeesCalculationTermBeginnig;\n\n\n  function initData(int[5] _details) public returns(bool) {\n    fundTerms.cashReserves = _details[0];\n    fundTerms.priorityDividendsRate = _details[1];\n    fundTerms.trustFeeRate = _details[2];\n    fundTerms.dividendsCalculationTermBeginnig = uint(_details[3]);\n    fundTerms.trustFeesCalculationTermBeginnig = uint(_details[4]);\n\n    cryptoYen.mint(this, uint(fundTerms.cashReserves));  \n    initializationProgress = initializationProgress | 0x1;\n    if (initializationProgress == 3) \n      initState();\n    return true; \n  }\n\n  /**\n   * @dev Function to init beneficiary rights\n   */\n\n  function initBeneficiary(int[] _priorityBeneficiaries, int[] _subordinatedBeneficiaries) public returns(bool) {\n    require (_priorityBeneficiaries.length % 2 == 0);\n    require (_subordinatedBeneficiaries.length % 2 == 0);\n    uint i;\n\n    priorities = new address[](_priorityBeneficiaries.length / 2);\n    subordinated = new address[](_subordinatedBeneficiaries.length / 2);\n\n    int _totalPriorityRights = 0;\n    int _totalSubordinatedRights = 0;\n\n    for (i = 0; i < _priorityBeneficiaries.length; i+=2){\n      priorities[i/2] = address(_priorityBeneficiaries[i]);\n      priorityBeneficiaries[address(_priorityBeneficiaries[i])] = Beneficiary(int(_priorityBeneficiaries[i+1]), int(_priorityBeneficiaries[i+1]));\n      _totalPriorityRights += int(_priorityBeneficiaries[i+1]);\n    }\n\n    for (i=0; i < _subordinatedBeneficiaries.length; i+=2){\n      subordinated[i/2] = address(_subordinatedBeneficiaries[i]);\n      subordinatedBeneficiaries[address(_subordinatedBeneficiaries[i])] = Beneficiary(int(_subordinatedBeneficiaries[i+1]), int(_subordinatedBeneficiaries[i+1]));\n      _totalSubordinatedRights += int(_subordinatedBeneficiaries[i+1]);\n    }\n\n    fundTerms.totalPriorityRights = _totalPriorityRights;\n    fundTerms.totalSubordinatedRights = _totalSubordinatedRights;\n    fundTerms.totalRights = _totalPriorityRights + _totalSubordinatedRights;\n\n    initializationProgress = initializationProgress | 0x2;\n    if (initializationProgress == 3) \n      initState();\n    return true;\n  }\n\n /**\n   * @dev Function to obtain beneficiary rights\n   * first col: \n   *  1 - priority beneficiaty\n   *  2 - subordinated beneficiary\n   * second col: ethereum address (160 bit hex uint)\n   * third col: beneficiary rights (int256 with DECIMAL_MULTIPLIER)\n   */\n\n\n  function getRightsOfEachInvestor() public view returns(int[]){\n    uint cols = 3;\n    int[] memory res = new int[](cols * (priorities.length + subordinated.length));\n    uint i = 0;\n\n    for (i = 0; i < priorities.length; i++){\n      res[i*cols] = 1;\n      res[i*cols+1] = int(priorities[i]);\n      res[i*cols+2] = priorityBeneficiaries[priorities[i]].amount;\n    }\n    \n    for (i = 0; i < subordinated.length; i++){\n      res[(priorities.length+i)*cols] = 2;\n      res[(priorities.length+i)*cols+1] = int(subordinated[i]);\n      res[(priorities.length+i)*cols+2] = subordinatedBeneficiaries[subordinated[i]].amount;\n    }\n    return res;\n  }\n\n\n  /**\n   * @dev Function to obtain balance for each investor in 3 col table\n   * first col: \n   *  1 - priority beneficiaty\n   *  2 - subordinated beneficiary\n   *  3 - Credits for automobile loan\n   *  4 - Dividends reserving account\n   *  5 - Prinvipal reserving account\n   *  6 - Cash reserving account\n   * second col: ethereum address (160 bit hex uint)\n   * third col: current balance (int256 with DECIMAL_MULTIPLIER)\n   */\n\n  function getBalanceForEachInvestor() public view returns(int[]){\n    FundState storage lastState = fundStates[fundStates.length - 1];\n    uint cols = 3;\n    int[] memory res = new int[](cols * (4 + priorities.length + subordinated.length));\n    uint i = 0;\n\n    for (i = 0; i < priorities.length; i++){\n      res[i*cols] = 1;\n      res[i*cols+1] = int(priorities[i]);\n      res[i*cols+2] = priorityBeneficiaries[priorities[i]].balance;\n    }\n    \n    for (i = 0; i < subordinated.length; i++){\n      res[(priorities.length+i)*cols] = 2;\n      res[(priorities.length+i)*cols+1] = int(subordinated[i]);\n      res[(priorities.length+i)*cols+2] = subordinatedBeneficiaries[subordinated[i]].balance;\n    }\n\n    i=priorities.length+subordinated.length;\n    \n    res[i*cols] = 3;\n    res[i*cols+2] = lastState.loansPrincipal;\n    res[i*cols+3] = 4;\n    res[i*cols+5] = lastState.dividendsNotDistributed;    \n    res[i*cols+6] = 5;\n    res[i*cols+8] = lastState.dividendsNotDistributed;\n    res[i*cols+9] = 6;\n    res[i*cols+11] = lastState.reserveCash;\n\n    return res;\n  }\n\n\n/*\n  @dev Function to obtain balance sheet table\n\nAssets\t\ncredits for automobile loans\t8627140509\ndue from bank accounts\t322917961\nprincipal reserving account\t304084959\ndivideds reserving account\t5830870\ncash reserving account\t13000000\nNet loss\t0\ntotal\t8627140509\nLiabilities\t\nPrincipal\t8944225463\npriority beneficiary rights\t8030000000\nsubordinated  beneficiary rights\t901225463\nbeneficiary rights of reserve cash\t13000000\nNet profit\t5833002\ntotal\t8950058465\n*/\n\n  function getBalanceSheet() public view returns (int[]){\n    FundState storage lastState = fundStates[fundStates.length - 1];\n    uint cols = 1;\n    int[] memory res = new int[](cols*13);\n\n    res[0] = lastState.loansPrincipal;\n\n    int principalReservingAccount = lastState.principalCollected + lastState.principalNotDistributed;\n    int dividendsReservingAccount = lastState.interestCollected - lastState.trustFees - lastState.expenses;\n    int cashReservingAccount = lastState.reserveCash;\n\n    res[1] = principalReservingAccount + dividendsReservingAccount + cashReservingAccount + lastState.bankInterest;\n    res[2] = principalReservingAccount;\n    res[3] = dividendsReservingAccount;\n    res[4] = cashReservingAccount;\n    res[5] = 0;\n    res[6] = res[0] - res[5];\n\n    int priorityBeneficiaryRights = fundTerms.totalPriorityRights;\n    int subordinatedBeneficiaryRights = fundTerms.totalSubordinatedRights;\n    int beneficiaryRightsOfReserveCash = fundTerms.cashReserves;\n\n    res[7] = priorityBeneficiaryRights + subordinatedBeneficiaryRights + beneficiaryRightsOfReserveCash;\n    res[8] = priorityBeneficiaryRights;\n    res[9] = subordinatedBeneficiaryRights;\n    res[10] = beneficiaryRightsOfReserveCash;\n    res[11] = dividendsReservingAccount + lastState.bankInterest;\n    res[12] = priorityBeneficiaryRights + subordinatedBeneficiaryRights + beneficiaryRightsOfReserveCash + dividendsReservingAccount + lastState.bankInterest;\n    return res;\n  }\n\n  function daysBetweenTimestamps(uint t1, uint t2) private pure returns(uint) {\n    return t2 / 86400 - t1 / 86400;\n  }\n\n\n\n   /**\n   * @dev Function to set information from OBK system\n   */\n\n// 0 // date\t9/6/2017\t\tint\n// 1 // Principal collected\t304084959\t\tdecimal\n// 2 // Interest collected\t6174416\t\tdecimal\n// 3 // # of full settlements\t97\t\tint\n// 4 // Bank interest\t2132\t\tdecimal\n// 5 // Expenses\t0\t\tdecimal\n// 6 // Trigger\t0\t\tdecimal\n\n\n  function setInformationFromOBK(int256[7] _details) public returns(bool){\n    for (uint256 i = 0; i < _details.length; i++) {\n      require(_details[0] >= 0);\n    }\n    FundState storage previousState = fundStates[fundStates.length - 1];\n    FundState memory newState;\n\n    newState.reserveCash = previousState.reserveCash;\n    newState.principalCollected = _details[1];\n    newState.interestCollected = _details[2];\n    newState.bankInterest = _details[4];\n    newState.expenses = _details[5];\n    int dividendsToDistribute = _details[2] + _details[4] - _details[5] + previousState.dividendsNotDistributed;\n    int principalToDistribute = _details[1] + previousState.principalNotDistributed;\n    int principalForPriorities = principalToDistribute*previousState.priorityPrincipal/previousState.loansPrincipal;\n    int principalForSubordinates = principalToDistribute*previousState.subordinatedPrincipal/previousState.loansPrincipal;\n    int daysBetween = int(daysBetweenTimestamps(previousState.lastDividendsCalculationDate, uint(_details[0])));\n    int requiredForFullDividendsCoverage = previousState.priorityPrincipal;\n    requiredForFullDividendsCoverage *= fundTerms.priorityDividendsRate;\n    requiredForFullDividendsCoverage *= daysBetween;\n    requiredForFullDividendsCoverage /= 365; //days per year;\n    requiredForFullDividendsCoverage /= DECIMAL_MULTIPLIER;\n\n    newState.priorityPrincipal = previousState.priorityPrincipal - principalForPriorities;\n    newState.subordinatedPrincipal = previousState.subordinatedPrincipal - principalForSubordinates;\n    newState.loansPrincipal = previousState.loansPrincipal - principalForPriorities - principalForSubordinates;\n    if (requiredForFullDividendsCoverage <= dividendsToDistribute) {\n      (principalToDistribute, dividendsToDistribute) = calculateDividendsForPriorities(dividendsToDistribute, principalForPriorities, daysBetween, previousState);\n        require(principalToDistribute >= 0);\n      require(dividendsToDistribute >= 0);\n        newState.principalNotDistributed += principalToDistribute;\n      (principalToDistribute, dividendsToDistribute) = calculateDividendsForSubordinates(dividendsToDistribute, principalForSubordinates, previousState);\n      require(principalToDistribute >= 0);\n      require(dividendsToDistribute >= 0);\n      newState.principalNotDistributed += principalToDistribute;\n      newState.dividendsNotDistributed = dividendsToDistribute;\n      // enough to cover dividends\n    } else {\n      if (requiredForFullDividendsCoverage <= dividendsToDistribute + previousState.reserveCash) {\n        // enough if we take cash reserves\n        revert();\n      } else {\n        revert();\n        // not enough\n      }\n    }\n    newState.lastDividendsCalculationDate = uint256(_details[0]);\n    newState.lastTrustFeesCalculationDate = uint256(_details[0]);\n    fundStates.push(newState);\n    return true;\n  }\n\n\n  /**\n   * @dev Function to calculate dividends for priorities\n   */\n  function calculateDividendsForPriorities(int _dividendsToDistribute, int _principalToDistribute, int _daysForDividends, FundState storage _state) internal returns (int principalLeft, int dividendsLeft) {\n    principalLeft = _principalToDistribute;\n    dividendsLeft = _dividendsToDistribute;\n    for (uint256 i = 0; i < priorities.length; i++) {\n      Beneficiary storage ben = priorityBeneficiaries[priorities[i]];\n      int currentBalance = ben.balance;\n      int princ = currentBalance*_principalToDistribute/_state.priorityPrincipal;\n      ben.balance -= princ;\n      principalLeft -= princ;\n      int dividends = currentBalance*_daysForDividends*fundTerms.priorityDividendsRate/365/DECIMAL_MULTIPLIER;\n      cryptoYen.mint(priorities[i], uint256(dividends));\n      dividendsLeft -= dividends;\n    }\n    return (principalLeft, dividendsLeft);\n  }\n\n    /**\n   * @dev Function to calculate dividends for subordinaries\n   */\n  function calculateDividendsForSubordinates(int _dividendsToDistribute, int _principalToDistribute, FundState storage _state) internal returns (int principalLeft, int dividendsLeft) {\n    principalLeft = _principalToDistribute;\n    dividendsLeft = _dividendsToDistribute;\n    for (uint256 i = 0; i < subordinated.length; i++) {\n      Beneficiary storage ben = subordinatedBeneficiaries[subordinated[i]];\n      int currentBalance = ben.balance;\n      int princ = currentBalance*_principalToDistribute/_state.subordinatedPrincipal;\n      ben.balance -= princ;\n      principalLeft -= princ;\n      int dividends = currentBalance*_dividendsToDistribute/_state.subordinatedPrincipal;\n      cryptoYen.mint(subordinated[i], uint256(dividends));\n      dividendsLeft -= dividends;\n    }\n    return (principalLeft, dividendsLeft);\n  }\n\n}\n",
  "sourcePath": "E:\\WORK\\alj_mvp_contract\\contracts\\fund\\Fund.sol",
  "compiler": {
    "name": "solc",
    "version": "0.4.19+commit.c4cbbb05.Emscripten.clang"
  },
  "schemaVersion": "2.0.0",
  "updatedAt": "2018-03-29T12:22:07.928Z"
}